:020000020000FC
:040000000C943A0022
:100070000C945A0000E10EBF0FEF0DBF01E107B96C
:100080000998119801E600937C0003E800937A0038
:10009000549A5C983B9A02E20093C80008E90093E6
:1000A000C90078940CE00093CC005C98409A449A84
:1000B0000C9455003091CE00303F21F03F3031F1AB
:1000C0000C945A0008E00093C90040985C9A439A47
:1000D00020E1CFEFDFEFDA95F1F7CA95D9F72A954E
:1000E000C1F703EC00937A0000917A0000740034A9
:1000F00011F40C94740000917900005990F315E408
:100100001093CE0008E90093C900189508E0009309
:10011000C90044985C9A439820E1CFEFDFEFDA956D
:10012000F1F7CA95D9F72A95C1F703EC00937A0045
:1001300000917A000074003411F40C94980000913E
:1001400079000F5690F71AE21093CE0008E9009359
:04015000C900189535
:00000001FF
